{
  "contractName": "FarmerRole",
  "abi": [
    {
      "inputs": [],
      "stateMutability": "nonpayable",
      "type": "constructor"
    },
    {
      "anonymous": false,
      "inputs": [
        {
          "indexed": true,
          "internalType": "address",
          "name": "farmer",
          "type": "address"
        }
      ],
      "name": "FarmerAdded",
      "type": "event"
    },
    {
      "anonymous": false,
      "inputs": [
        {
          "indexed": true,
          "internalType": "address",
          "name": "farmer",
          "type": "address"
        }
      ],
      "name": "FarmerRemoved",
      "type": "event"
    },
    {
      "inputs": [
        {
          "internalType": "address",
          "name": "account",
          "type": "address"
        }
      ],
      "name": "isFarmer",
      "outputs": [
        {
          "internalType": "bool",
          "name": "",
          "type": "bool"
        }
      ],
      "stateMutability": "view",
      "type": "function",
      "constant": true
    },
    {
      "inputs": [
        {
          "internalType": "address",
          "name": "account",
          "type": "address"
        }
      ],
      "name": "addFarmer",
      "outputs": [],
      "stateMutability": "nonpayable",
      "type": "function"
    },
    {
      "inputs": [],
      "name": "renounceFarmer",
      "outputs": [],
      "stateMutability": "nonpayable",
      "type": "function"
    }
  ],
  "bytecode": "0x608060405234801561001057600080fd5b506100203361002560201b60201c565b6101c7565b61003d81600061008360201b61027c1790919060201c565b8073ffffffffffffffffffffffffffffffffffffffff167f2e0ded4123377a3c2bc9a26f1717655a129e2f20752924d42e730ec89c83dbd060405160405180910390a250565b600073ffffffffffffffffffffffffffffffffffffffff168173ffffffffffffffffffffffffffffffffffffffff1614156100bd57600080fd5b6100cd828261013560201b60201c565b156100d757600080fd5b60018260000160008373ffffffffffffffffffffffffffffffffffffffff1673ffffffffffffffffffffffffffffffffffffffff16815260200190815260200160002060006101000a81548160ff0219169083151502179055505050565b60008073ffffffffffffffffffffffffffffffffffffffff168273ffffffffffffffffffffffffffffffffffffffff16141561017057600080fd5b8260000160008373ffffffffffffffffffffffffffffffffffffffff1673ffffffffffffffffffffffffffffffffffffffff16815260200190815260200160002060009054906101000a900460ff16905092915050565b610409806101d66000396000f3fe608060405234801561001057600080fd5b50600436106100415760003560e01c806380c3f96d1461004657806380fc0ce41461008a578063b942906914610094575b600080fd5b6100886004803603602081101561005c57600080fd5b81019080803573ffffffffffffffffffffffffffffffffffffffff1690602001909291905050506100f0565b005b61009261010e565b005b6100d6600480360360208110156100aa57600080fd5b81019080803573ffffffffffffffffffffffffffffffffffffffff169060200190929190505050610119565b604051808215151515815260200191505060405180910390f35b6100f933610119565b61010257600080fd5b61010b81610136565b50565b61011733610190565b565b600061012f8260006101ea90919063ffffffff16565b9050919050565b61014a81600061027c90919063ffffffff16565b8073ffffffffffffffffffffffffffffffffffffffff167f2e0ded4123377a3c2bc9a26f1717655a129e2f20752924d42e730ec89c83dbd060405160405180910390a250565b6101a481600061032890919063ffffffff16565b8073ffffffffffffffffffffffffffffffffffffffff167fa5e0f060af304ab17dd418c7927e3da3ae7868189bf387aee09ab179ccc572f260405160405180910390a250565b60008073ffffffffffffffffffffffffffffffffffffffff168273ffffffffffffffffffffffffffffffffffffffff16141561022557600080fd5b8260000160008373ffffffffffffffffffffffffffffffffffffffff1673ffffffffffffffffffffffffffffffffffffffff16815260200190815260200160002060009054906101000a900460ff16905092915050565b600073ffffffffffffffffffffffffffffffffffffffff168173ffffffffffffffffffffffffffffffffffffffff1614156102b657600080fd5b6102c082826101ea565b156102ca57600080fd5b60018260000160008373ffffffffffffffffffffffffffffffffffffffff1673ffffffffffffffffffffffffffffffffffffffff16815260200190815260200160002060006101000a81548160ff0219169083151502179055505050565b600073ffffffffffffffffffffffffffffffffffffffff168173ffffffffffffffffffffffffffffffffffffffff16141561036257600080fd5b61036c82826101ea565b61037557600080fd5b60008260000160008373ffffffffffffffffffffffffffffffffffffffff1673ffffffffffffffffffffffffffffffffffffffff16815260200190815260200160002060006101000a81548160ff021916908315150217905550505056fea264697066735822122009d8020086387384e4590da16eb6dc6466a2a42d817c8517fa2a70c2652b49f464736f6c63430006020033",
  "source": "pragma solidity ^0.6.2;\n\n// Import the library 'Roles'\nimport \"./Roles.sol\";\n\n// Define a contract 'FarmerRole' to manage this role - add, remove, check\ncontract FarmerRole {\n    using Roles for Roles.Role;\n\n    // Define 2 events, one for Adding, and other for Removing\n    event FarmerAdded(address indexed farmer);\n    event FarmerRemoved(address indexed farmer);\n\n    // Define a struct 'farmers' by inheriting from 'Roles' library, struct Role\n    Roles.Role private farmers;\n\n    // In the constructor make the address that deploys this contract the 1st farmer\n    constructor() public {\n        _addFarmer(msg.sender);\n    }\n\n    // Define a modifier that checks to see if msg.sender has the appropriate role\n    modifier onlyFarmer() {\n        require(isFarmer(msg.sender));\n        _;\n    }\n\n    // Define a function 'isFarmer' to check this role\n    function isFarmer(address account) public view returns (bool) {\n        return farmers.has(account);\n    }\n\n    // Define a function 'addFarmer' that adds this role\n    function addFarmer(address account) public onlyFarmer {\n        _addFarmer(account);\n    }\n\n    // Define a function 'renounceFarmer' to renounce this role\n    function renounceFarmer() public {\n        _removeFarmer(msg.sender);\n    }\n\n    // Define an internal function '_addFarmer' to add this role, called by 'addFarmer'\n    function _addFarmer(address account) internal {\n        farmers.add(account);\n        emit FarmerAdded(account);\n    }\n\n    // Define an internal function '_removeFarmer' to remove this role, called by 'removeFarmer'\n    function _removeFarmer(address account) internal {\n        farmers.remove(account);\n        emit FarmerRemoved(account);\n    }\n}\n",
  "sourcePath": "/home/lium/Dev/Udacity/udacity-supply-chain/contracts/coffeeaccesscontrol/FarmerRole.sol",
  "compiler": {
    "name": "solc",
    "version": "0.6.2+commit.bacdbe57.Emscripten.clang"
  },
  "schemaVersion": "3.3.4",
  "updatedAt": "2021-03-25T10:50:20.554Z",
  "networkType": "ethereum",
  "devdoc": {
    "methods": {}
  },
  "userdoc": {
    "methods": {}
  }
}